:1000000012C057C01EC01DC01CC01BC088C019C074
:1000100018C017C016C015C014C013C012C011C03C
:1000200010C00FC00EC011241FBECFEDCDBF10E019
:10003000A0E6B0E001C01D92AD36B107E1F705D1F1
:100040007EC1DECF80916C00882349F481E08093EB
:100050006C00969AD8989198939A909A28C080911B
:100060006C00813031F410926C00969893989098BF
:100070000AC080916C00833049F482E080936C0068
:100080009698939A909AD898919811C080916C0004
:10009000823049F483E080936C00969A939A909A08
:1000A000D89A919A04C080E197E20197F1F780E035
:1000B00008951F920F920FB60F9211242F933F9322
:1000C0004F935F936F937F938F939F93AF93BF9360
:1000D000EF93FF938499B6DFFF91EF91BF91AF91BA
:1000E0009F918F917F916F915F914F913F912F9150
:1000F0000F900FBE0F901F90189582E085BF80E48F
:100100008BBF089581E88FBD89E08EBD1BBC1ABCF2
:10011000089510BE81E083BF82E089BF08951F92D9
:100120000F920FB60F9211242F938F939F9380916C
:10013000640090916500019690936500809364003F
:100140008091640090916500805E9E4209F061C0DC
:10015000109265001092640080916600882329F057
:1001600080916B00882309F4959A8091660088231A
:1001700021F080916B008111959880916700882310
:1001800029F080916B00882309F4D99A8091670047
:10019000882321F080916B008111D99880916800AB
:1001A000882329F080916B00882309F4909A80912C
:1001B0006800882321F080916B00811190988091D4
:1001C0006900882329F080916B00882309F4919AB3
:1001D00080916900882321F080916B0081119198B2
:1001E00080916A00882329F080916B00882309F4AC
:1001F000969A80916A00882321F080916B0081118A
:10020000969880916B0090E0882309F491E0909398
:100210006B00B79B03C08AE080936000B79903C06E
:100220008AE080936100B69B03C08AE080936200FD
:10023000B69903C08AE0809363009F918F912F91BC
:100240000F900FBE0F901F90189583E08ABB88E037
:1002500087BB8BE681BB92E095BF80E48BBF81E8D2
:100260008FBD89E08EBD1BBC1ABC10BE81E083BF70
:1002700099BF7894109266001092670010926800FF
:100280001092690010926A009598D9989098919868
:1002900096989398D89880B3109266001092670051
:1002A000109268001092690010926A009598D9988F
:1002B0009098919896989398D8985AE041E020EDBC
:1002C00037E02BC080916000815080936000809166
:1002D0006100882329F08091610081508093610042
:1002E00080916200882329F0809162008150809380
:1002F000620080916300882329F08091630081501F
:1003000080936300B19B04C010926800909A02C071
:1003100040936800C9010197F1F780B380916000B4
:10032000809161008091620080916300109267006B
:10033000D99A5ABD80916000882321F6C8CFF894DD
:02034000FFCFED
:00000001FF
