:1000000009C021C0A8C05CC01EC046C01CC04EC0F4
:100010001AC019C011241FBECFE9CDBF10E0A0E661
:10002000B0E0EAE2F3E002C005900D92A236B1071B
:10003000D9F710E0A2E6B0E001C01D92A536B107E5
:10004000E1F7ADD070C1DCCF83E08FBD89E083BF25
:1000500086E786BF84E089BF089581E48FBD89E08B
:1000600083BF8BE386BF089580E18FBD13BE82E618
:1000700089BD88E089BF089589E083BFC39A089548
:1000800088E083BFC398089580E483B982E087B98C
:10009000439A81E084BB08951F920F920FB60F928E
:1000A00011240F900FBE0F901F9018951F920F9262
:1000B0000FB60F9211240F900FBE0F901F9018953E
:1000C0001F920F920FB60F9211240F900FBE0F9038
:1000D0001F90189581E080936400B99AC19A0895A1
:1000E0001092640088B318BA80EB94E00197F1F79E
:1000F00088B318BA8DE087BB089540E050E090E0E7
:1001000060EA7CE8A8E7B0E019C020E030E0C39ADC
:10011000FB013197F1F7C398FB013197F1F72F5F9E
:100120003F4F2530310599F728E833E1FD0131973C
:10013000F1F721503040D1F74F5F5F4F4817590713
:1001400024F388E893E128E730E0F9013197F1F7EB
:100150000197D9F708951F920F920FB60F921124AD
:100160008F93809162008A3028F4809162008E5FC4
:10017000809362008F910F900FBE0F901F90189583
:1001800080E185BB80E28ABF8BBF0895682F81E044
:1001900090E0BBD0089581E090E0AFD00895BF9289
:1001A000CF92DF92EF92FF920F931F93CF93DF9343
:1001B0008DE087BB81E48FBD89E083BF8BE386BF81
:1001C00080E185BB80E28ABF8BBF789411E01093F9
:1001D000620081E090E091D08093600080916000A7
:1001E000882311F41093600020E1B22E08E710E09C
:1001F000CC24C394C0EBD4E09DE0D92E80E6E82E59
:100200008AEEF82E809160008130E1F480916200E6
:10021000882329F080916200815080936200C29A05
:100220008B2D8A95F1F7C29888EE93E0F80131970B
:10023000F1F70197D9F780916200863010F0C39AE8
:1002400001C0C39880916000823051F580916200B6
:10025000882329F080916200815080936200C29AC5
:100260008B2D8A95F1F7C29888EE93E0F8013197CB
:10027000F1F70197D9F780916200863060F0109213
:10028000640088B318BACE010197F1F788B318BAA1
:10029000D7BAC39A05C0C0926400B99AC19AC398EC
:1002A00080916000833071F4C3981092640088B329
:1002B00018BACE010197F1F788B318BAD7BAC701B7
:1002C0000197F1F780916400882309F09BCFB19BDF
:1002D00099CF809160008F5F809360008091600073
:1002E000843010F0C09260008091600006DF609161
:1002F000600081E090E009D085CFE199FECF1FBA80
:100300008EBBE09A99278DB30895262FE199FECFF1
:100310001CBA1FBA8EBB2DBB0FB6F894E29AE19AB5
:0A0320000FBE01960895F894FFCF78
:02032A000100D0
:00000001FF
